{
  "_format": "hh-sol-artifact-1",
  "contractName": "Court",
  "sourceName": "contracts/Court.sol",
  "abi": [
    {
      "constant": true,
      "inputs": [
        {
          "name": "_caseId",
          "type": "uint256"
        }
      ],
      "name": "getEvidenceCount",
      "outputs": [
        {
          "name": "",
          "type": "uint256"
        }
      ],
      "payable": false,
      "stateMutability": "view",
      "type": "function"
    },
    {
      "constant": true,
      "inputs": [
        {
          "name": "_caseId",
          "type": "uint256"
        }
      ],
      "name": "getCaseAddresses",
      "outputs": [
        {
          "name": "judge",
          "type": "address"
        },
        {
          "name": "lawyer1",
          "type": "address"
        },
        {
          "name": "lawyer2",
          "type": "address"
        }
      ],
      "payable": false,
      "stateMutability": "view",
      "type": "function"
    },
    {
      "constant": false,
      "inputs": [
        {
          "name": "_caseId",
          "type": "uint256"
        },
        {
          "name": "_fileHash",
          "type": "string"
        },
        {
          "name": "_fileType",
          "type": "string"
        }
      ],
      "name": "uploadEvidence",
      "outputs": [],
      "payable": false,
      "stateMutability": "nonpayable",
      "type": "function"
    },
    {
      "constant": false,
      "inputs": [
        {
          "name": "_isLawyer",
          "type": "bool"
        },
        {
          "name": "_ljId",
          "type": "uint256"
        },
        {
          "name": "_caseId",
          "type": "uint256"
        },
        {
          "name": "_key",
          "type": "string"
        }
      ],
      "name": "addEncryptedKey",
      "outputs": [],
      "payable": false,
      "stateMutability": "nonpayable",
      "type": "function"
    },
    {
      "constant": true,
      "inputs": [],
      "name": "owner",
      "outputs": [
        {
          "name": "",
          "type": "address"
        }
      ],
      "payable": false,
      "stateMutability": "view",
      "type": "function"
    },
    {
      "constant": true,
      "inputs": [
        {
          "name": "_isLawyer",
          "type": "bool"
        },
        {
          "name": "_ljId",
          "type": "uint256"
        },
        {
          "name": "_caseId",
          "type": "uint256"
        }
      ],
      "name": "getEncryptedKey",
      "outputs": [
        {
          "name": "",
          "type": "string"
        }
      ],
      "payable": false,
      "stateMutability": "view",
      "type": "function"
    },
    {
      "constant": true,
      "inputs": [
        {
          "name": "_caseId",
          "type": "uint256"
        }
      ],
      "name": "getTranscriptsCount",
      "outputs": [
        {
          "name": "",
          "type": "uint256"
        }
      ],
      "payable": false,
      "stateMutability": "view",
      "type": "function"
    },
    {
      "constant": true,
      "inputs": [
        {
          "name": "_caseId",
          "type": "uint256"
        },
        {
          "name": "_transcriptNo",
          "type": "uint256"
        }
      ],
      "name": "getTranscript",
      "outputs": [
        {
          "name": "",
          "type": "string"
        }
      ],
      "payable": false,
      "stateMutability": "view",
      "type": "function"
    },
    {
      "constant": true,
      "inputs": [
        {
          "name": "",
          "type": "uint256"
        }
      ],
      "name": "lawyers",
      "outputs": [
        {
          "name": "name",
          "type": "string"
        },
        {
          "name": "phone",
          "type": "uint256"
        },
        {
          "name": "email",
          "type": "string"
        },
        {
          "name": "addr",
          "type": "address"
        },
        {
          "name": "pubkey",
          "type": "string"
        }
      ],
      "payable": false,
      "stateMutability": "view",
      "type": "function"
    },
    {
      "constant": false,
      "inputs": [
        {
          "name": "_name",
          "type": "string"
        },
        {
          "name": "_phone",
          "type": "uint256"
        },
        {
          "name": "_email",
          "type": "string"
        },
        {
          "name": "_addr",
          "type": "address"
        },
        {
          "name": "_pubkey",
          "type": "string"
        }
      ],
      "name": "registerLawyer",
      "outputs": [],
      "payable": false,
      "stateMutability": "nonpayable",
      "type": "function"
    },
    {
      "constant": true,
      "inputs": [
        {
          "name": "",
          "type": "uint256"
        }
      ],
      "name": "judges",
      "outputs": [
        {
          "name": "name",
          "type": "string"
        },
        {
          "name": "phone",
          "type": "uint256"
        },
        {
          "name": "email",
          "type": "string"
        },
        {
          "name": "addr",
          "type": "address"
        },
        {
          "name": "pubkey",
          "type": "string"
        }
      ],
      "payable": false,
      "stateMutability": "view",
      "type": "function"
    },
    {
      "constant": false,
      "inputs": [
        {
          "name": "_caseId",
          "type": "uint256"
        },
        {
          "name": "_transcript",
          "type": "string"
        }
      ],
      "name": "uploadTranscript",
      "outputs": [],
      "payable": false,
      "stateMutability": "nonpayable",
      "type": "function"
    },
    {
      "constant": false,
      "inputs": [
        {
          "name": "_name",
          "type": "string"
        },
        {
          "name": "_phone",
          "type": "uint256"
        },
        {
          "name": "_email",
          "type": "string"
        },
        {
          "name": "_addr",
          "type": "address"
        },
        {
          "name": "_pubkey",
          "type": "string"
        }
      ],
      "name": "registerJudge",
      "outputs": [],
      "payable": false,
      "stateMutability": "nonpayable",
      "type": "function"
    },
    {
      "constant": true,
      "inputs": [
        {
          "name": "",
          "type": "uint256"
        }
      ],
      "name": "cases",
      "outputs": [
        {
          "name": "judge",
          "type": "address"
        },
        {
          "name": "lawyer1",
          "type": "address"
        },
        {
          "name": "lawyer2",
          "type": "address"
        },
        {
          "name": "party_1_name",
          "type": "string"
        },
        {
          "name": "party_2_name",
          "type": "string"
        },
        {
          "name": "details",
          "type": "string"
        }
      ],
      "payable": false,
      "stateMutability": "view",
      "type": "function"
    },
    {
      "constant": true,
      "inputs": [
        {
          "name": "_caseId",
          "type": "uint256"
        },
        {
          "name": "_evidenceNo",
          "type": "uint256"
        }
      ],
      "name": "getEvidence",
      "outputs": [
        {
          "name": "FileHash",
          "type": "string"
        },
        {
          "name": "FileType",
          "type": "string"
        }
      ],
      "payable": false,
      "stateMutability": "view",
      "type": "function"
    },
    {
      "constant": false,
      "inputs": [
        {
          "name": "_judgeId",
          "type": "uint256"
        },
        {
          "name": "_lawyer1Id",
          "type": "uint256"
        },
        {
          "name": "_lawyer2Id",
          "type": "uint256"
        },
        {
          "name": "_party_1_name",
          "type": "string"
        },
        {
          "name": "_party_2_name",
          "type": "string"
        },
        {
          "name": "_details",
          "type": "string"
        }
      ],
      "name": "newCase",
      "outputs": [],
      "payable": false,
      "stateMutability": "nonpayable",
      "type": "function"
    },
    {
      "inputs": [],
      "payable": false,
      "stateMutability": "nonpayable",
      "type": "constructor"
    },
    {
      "anonymous": false,
      "inputs": [
        {
          "indexed": false,
          "name": "_lawyerId",
          "type": "uint256"
        }
      ],
      "name": "lawyerRegistered",
      "type": "event"
    },
    {
      "anonymous": false,
      "inputs": [
        {
          "indexed": false,
          "name": "_judgeId",
          "type": "uint256"
        }
      ],
      "name": "judgeRegistered",
      "type": "event"
    },
    {
      "anonymous": false,
      "inputs": [
        {
          "indexed": false,
          "name": "_caseId",
          "type": "uint256"
        }
      ],
      "name": "caseCreated",
      "type": "event"
    }
  ],
  "bytecode": "0x608060405234801561001057600080fd5b50336000806101000a81548173ffffffffffffffffffffffffffffffffffffffff021916908373ffffffffffffffffffffffffffffffffffffffff160217905550612dd4806100606000396000f3fe6080604052600436106100e6576000357c0100000000000000000000000000000000000000000000000000000000900463ffffffff168063423aee31146100eb57806356993cac1461013a5780635b2647c61461021b5780636b27cc0f146103845780638da5cb5b1461046c5780638fa1f8d4146104c3578063991d7e5b1461058d5780639d7a05c6146105dc578063a33bf6d21461069a578063a6d47c1914610860578063b06b036814610a80578063cc5f456214610c46578063d7bda86114610d18578063f09790dd14610f38578063f1b8a98c1461115d578063f343d44614611287575b600080fd5b3480156100f757600080fd5b506101246004803603602081101561010e57600080fd5b810190808035906020019092919050505061149b565b6040518082815260200191505060405180910390f35b34801561014657600080fd5b506101736004803603602081101561015d57600080fd5b81019080803590602001909291905050506114c8565b604051808473ffffffffffffffffffffffffffffffffffffffff1673ffffffffffffffffffffffffffffffffffffffff1681526020018373ffffffffffffffffffffffffffffffffffffffff1673ffffffffffffffffffffffffffffffffffffffff1681526020018273ffffffffffffffffffffffffffffffffffffffff1673ffffffffffffffffffffffffffffffffffffffff168152602001935050505060405180910390f35b34801561022757600080fd5b506103826004803603606081101561023e57600080fd5b81019080803590602001909291908035906020019064010000000081111561026557600080fd5b82018360208201111561027757600080fd5b8035906020019184600183028401116401000000008311171561029957600080fd5b91908080601f016020809104026020016040519081016040528093929190818152602001838380828437600081840152601f19601f820116905080830192505050505050509192919290803590602001906401000000008111156102fc57600080fd5b82018360208201111561030e57600080fd5b8035906020019184600183028401116401000000008311171561033057600080fd5b91908080601f016020809104026020016040519081016040528093929190818152602001838380828437600081840152601f19601f82011690508083019250505050505050919291929050505061159d565b005b34801561039057600080fd5b5061046a600480360360808110156103a757600080fd5b810190808035151590602001909291908035906020019092919080359060200190929190803590602001906401000000008111156103e457600080fd5b8201836020820111156103f657600080fd5b8035906020019184600183028401116401000000008311171561041857600080fd5b91908080601f016020809104026020016040519081016040528093929190818152602001838380828437600081840152601f19601f82011690508083019250505050505050919291929050505061170e565b005b34801561047857600080fd5b50610481611807565b604051808273ffffffffffffffffffffffffffffffffffffffff1673ffffffffffffffffffffffffffffffffffffffff16815260200191505060405180910390f35b3480156104cf57600080fd5b50610512600480360360608110156104e657600080fd5b81019080803515159060200190929190803590602001909291908035906020019092919050505061182c565b6040518080602001828103825283818151815260200191508051906020019080838360005b83811015610552578082015181840152602081019050610537565b50505050905090810190601f16801561057f5780820380516001836020036101000a031916815260200191505b509250505060405180910390f35b34801561059957600080fd5b506105c6600480360360208110156105b057600080fd5b81019080803590602001909291905050506119d9565b6040518082815260200191505060405180910390f35b3480156105e857600080fd5b5061061f600480360360408110156105ff57600080fd5b810190808035906020019092919080359060200190929190505050611a06565b6040518080602001828103825283818151815260200191508051906020019080838360005b8381101561065f578082015181840152602081019050610644565b50505050905090810190601f16801561068c5780820380516001836020036101000a031916815260200191505b509250505060405180910390f35b3480156106a657600080fd5b506106d3600480360360208110156106bd57600080fd5b8101908080359060200190929190505050611ae0565b6040518080602001868152602001806020018573ffffffffffffffffffffffffffffffffffffffff1673ffffffffffffffffffffffffffffffffffffffff16815260200180602001848103845289818151815260200191508051906020019080838360005b83811015610753578082015181840152602081019050610738565b50505050905090810190601f1680156107805780820380516001836020036101000a031916815260200191505b50848103835287818151815260200191508051906020019080838360005b838110156107b957808201518184015260208101905061079e565b50505050905090810190601f1680156107e65780820380516001836020036101000a031916815260200191505b50848103825285818151815260200191508051906020019080838360005b8381101561081f578082015181840152602081019050610804565b50505050905090810190601f16801561084c5780820380516001836020036101000a031916815260200191505b509850505050505050505060405180910390f35b34801561086c57600080fd5b50610a7e600480360360a081101561088357600080fd5b81019080803590602001906401000000008111156108a057600080fd5b8201836020820111156108b257600080fd5b803590602001918460018302840111640100000000831117156108d457600080fd5b91908080601f016020809104026020016040519081016040528093929190818152602001838380828437600081840152601f19601f820116905080830192505050505050509192919290803590602001909291908035906020019064010000000081111561094157600080fd5b82018360208201111561095357600080fd5b8035906020019184600183028401116401000000008311171561097557600080fd5b91908080601f016020809104026020016040519081016040528093929190818152602001838380828437600081840152601f19601f820116905080830192505050505050509192919290803573ffffffffffffffffffffffffffffffffffffffff169060200190929190803590602001906401000000008111156109f857600080fd5b820183602082011115610a0a57600080fd5b80359060200191846001830284011164010000000083111715610a2c57600080fd5b91908080601f016020809104026020016040519081016040528093929190818152602001838380828437600081840152601f19601f820116905080830192505050505050509192919290505050611d0d565b005b348015610a8c57600080fd5b50610ab960048036036020811015610aa357600080fd5b8101908080359060200190929190505050611e74565b6040518080602001868152602001806020018573ffffffffffffffffffffffffffffffffffffffff1673ffffffffffffffffffffffffffffffffffffffff16815260200180602001848103845289818151815260200191508051906020019080838360005b83811015610b39578082015181840152602081019050610b1e565b50505050905090810190601f168015610b665780820380516001836020036101000a031916815260200191505b50848103835287818151815260200191508051906020019080838360005b83811015610b9f578082015181840152602081019050610b84565b50505050905090810190601f168015610bcc5780820380516001836020036101000a031916815260200191505b50848103825285818151815260200191508051906020019080838360005b83811015610c05578082015181840152602081019050610bea565b50505050905090810190601f168015610c325780820380516001836020036101000a031916815260200191505b509850505050505050505060405180910390f35b348015610c5257600080fd5b50610d1660048036036040811015610c6957600080fd5b810190808035906020019092919080359060200190640100000000811115610c9057600080fd5b820183602082011115610ca257600080fd5b80359060200191846001830284011164010000000083111715610cc457600080fd5b91908080601f016020809104026020016040519081016040528093929190818152602001838380828437600081840152601f19601f8201169050808301925050505050505091929192905050506120a1565b005b348015610d2457600080fd5b50610f36600480360360a0811015610d3b57600080fd5b8101908080359060200190640100000000811115610d5857600080fd5b820183602082011115610d6a57600080fd5b80359060200191846001830284011164010000000083111715610d8c57600080fd5b91908080601f016020809104026020016040519081016040528093929190818152602001838380828437600081840152601f19601f8201169050808301925050505050505091929192908035906020019092919080359060200190640100000000811115610df957600080fd5b820183602082011115610e0b57600080fd5b80359060200191846001830284011164010000000083111715610e2d57600080fd5b91908080601f016020809104026020016040519081016040528093929190818152602001838380828437600081840152601f19601f820116905080830192505050505050509192919290803573ffffffffffffffffffffffffffffffffffffffff16906020019092919080359060200190640100000000811115610eb057600080fd5b820183602082011115610ec257600080fd5b80359060200191846001830284011164010000000083111715610ee457600080fd5b91908080601f016020809104026020016040519081016040528093929190818152602001838380828437600081840152601f19601f82011690508083019250505050505050919291929050505061215d565b005b348015610f4457600080fd5b50610f7160048036036020811015610f5b57600080fd5b81019080803590602001909291905050506122c5565b604051808773ffffffffffffffffffffffffffffffffffffffff1673ffffffffffffffffffffffffffffffffffffffff1681526020018673ffffffffffffffffffffffffffffffffffffffff1673ffffffffffffffffffffffffffffffffffffffff1681526020018573ffffffffffffffffffffffffffffffffffffffff1673ffffffffffffffffffffffffffffffffffffffff168152602001806020018060200180602001848103845287818151815260200191508051906020019080838360005b8381101561104f578082015181840152602081019050611034565b50505050905090810190601f16801561107c5780820380516001836020036101000a031916815260200191505b50848103835286818151815260200191508051906020019080838360005b838110156110b557808201518184015260208101905061109a565b50505050905090810190601f1680156110e25780820380516001836020036101000a031916815260200191505b50848103825285818151815260200191508051906020019080838360005b8381101561111b578082015181840152602081019050611100565b50505050905090810190601f1680156111485780820380516001836020036101000a031916815260200191505b50995050505050505050505060405180910390f35b34801561116957600080fd5b506111a06004803603604081101561118057600080fd5b810190808035906020019092919080359060200190929190505050612538565b604051808060200180602001838103835285818151815260200191508051906020019080838360005b838110156111e45780820151818401526020810190506111c9565b50505050905090810190601f1680156112115780820380516001836020036101000a031916815260200191505b50838103825284818151815260200191508051906020019080838360005b8381101561124a57808201518184015260208101905061122f565b50505050905090810190601f1680156112775780820380516001836020036101000a031916815260200191505b5094505050505060405180910390f35b34801561129357600080fd5b50611499600480360360c08110156112aa57600080fd5b81019080803590602001909291908035906020019092919080359060200190929190803590602001906401000000008111156112e557600080fd5b8201836020820111156112f757600080fd5b8035906020019184600183028401116401000000008311171561131957600080fd5b91908080601f016020809104026020016040519081016040528093929190818152602001838380828437600081840152601f19601f8201169050808301925050505050505091929192908035906020019064010000000081111561137c57600080fd5b82018360208201111561138e57600080fd5b803590602001918460018302840111640100000000831117156113b057600080fd5b91908080601f016020809104026020016040519081016040528093929190818152602001838380828437600081840152601f19601f8201169050808301925050505050505091929192908035906020019064010000000081111561141357600080fd5b82018360208201111561142557600080fd5b8035906020019184600183028401116401000000008311171561144757600080fd5b91908080601f016020809104026020016040519081016040528093929190818152602001838380828437600081840152601f19601f8201169050808301925050505050505091929192905050506126ec565b005b60006003828154811015156114ac57fe5b9060005260206000209060090201600301805490509050919050565b60008060006003848154811015156114dc57fe5b906000526020600020906009020160000160009054906101000a900473ffffffffffffffffffffffffffffffffffffffff1660038581548110151561151d57fe5b906000526020600020906009020160010160009054906101000a900473ffffffffffffffffffffffffffffffffffffffff1660038681548110151561155e57fe5b906000526020600020906009020160020160009054906101000a900473ffffffffffffffffffffffffffffffffffffffff169250925092509193909250565b6000809054906101000a900473ffffffffffffffffffffffffffffffffffffffff1673ffffffffffffffffffffffffffffffffffffffff163373ffffffffffffffffffffffffffffffffffffffff161415156115f857600080fd5b6020604051908101604052806000815250805190602001208280519060200120141580156116445750602060405190810160405280600081525080519060200120818051906020012014155b151561164f57600080fd5b60038381548110151561165e57fe5b90600052602060002090600902016003018290806001815401808255809150509060018203906000526020600020016000909192909190915090805190602001906116aa929190612a94565b50506003838154811015156116bb57fe5b9060005260206000209060090201600401819080600181540180825580915050906001820390600052602060002001600090919290919091509080519060200190611707929190612a94565b5050505050565b6000809054906101000a900473ffffffffffffffffffffffffffffffffffffffff1673ffffffffffffffffffffffffffffffffffffffff163373ffffffffffffffffffffffffffffffffffffffff1614151561176957600080fd5b83156117ba578060018481548110151561177f57fe5b9060005260206000209060060201600501600084815260200190815260200160002090805190602001906117b4929190612a94565b50611801565b806002848154811015156117ca57fe5b9060005260206000209060060201600501600084815260200190815260200160002090805190602001906117ff929190612a94565b505b50505050565b6000809054906101000a900473ffffffffffffffffffffffffffffffffffffffff1681565b606083156119055760018381548110151561184357fe5b906000526020600020906006020160050160008381526020019081526020016000208054600181600116156101000203166002900480601f0160208091040260200160405190810160405280929190818152602001828054600181600116156101000203166002900480156118f95780601f106118ce576101008083540402835291602001916118f9565b820191906000526020600020905b8154815290600101906020018083116118dc57829003601f168201915b505050505090506119d2565b60028381548110151561191457fe5b906000526020600020906006020160050160008381526020019081526020016000208054600181600116156101000203166002900480601f0160208091040260200160405190810160405280929190818152602001828054600181600116156101000203166002900480156119ca5780601f1061199f576101008083540402835291602001916119ca565b820191906000526020600020905b8154815290600101906020018083116119ad57829003601f168201915b505050505090505b9392505050565b60006003828154811015156119ea57fe5b9060005260206000209060090201600801805490509050919050565b6060600383815481101515611a1757fe5b906000526020600020906009020160080182815481101515611a3557fe5b906000526020600020018054600181600116156101000203166002900480601f016020809104026020016040519081016040528092919081815260200182805460018160011615610100020316600290048015611ad35780601f10611aa857610100808354040283529160200191611ad3565b820191906000526020600020905b815481529060010190602001808311611ab657829003601f168201915b5050505050905092915050565b600181815481101515611aef57fe5b9060005260206000209060060201600091509050806000018054600181600116156101000203166002900480601f016020809104026020016040519081016040528092919081815260200182805460018160011615610100020316600290048015611b9b5780601f10611b7057610100808354040283529160200191611b9b565b820191906000526020600020905b815481529060010190602001808311611b7e57829003601f168201915b505050505090806001015490806002018054600181600116156101000203166002900480601f016020809104026020016040519081016040528092919081815260200182805460018160011615610100020316600290048015611c3f5780601f10611c1457610100808354040283529160200191611c3f565b820191906000526020600020905b815481529060010190602001808311611c2257829003601f168201915b5050505050908060030160009054906101000a900473ffffffffffffffffffffffffffffffffffffffff1690806004018054600181600116156101000203166002900480601f016020809104026020016040519081016040528092919081815260200182805460018160011615610100020316600290048015611d035780601f10611cd857610100808354040283529160200191611d03565b820191906000526020600020905b815481529060010190602001808311611ce657829003601f168201915b5050505050905085565b611d15612b14565b60a0604051908101604052808781526020018681526020018581526020018473ffffffffffffffffffffffffffffffffffffffff168152602001838152509050600181908060018154018082558091505090600182039060005260206000209060060201600090919290919091506000820151816000019080519060200190611d9f929190612b5a565b50602082015181600101556040820151816002019080519060200190611dc6929190612b5a565b5060608201518160030160006101000a81548173ffffffffffffffffffffffffffffffffffffffff021916908373ffffffffffffffffffffffffffffffffffffffff1602179055506080820151816004019080519060200190611e2a929190612b5a565b505050507fd27034f23f8291ab86ab3da722bb1ce4ddfe94c2f69c7e91d98ff4c57b420ede60018080549050036040518082815260200191505060405180910390a1505050505050565b600281815481101515611e8357fe5b9060005260206000209060060201600091509050806000018054600181600116156101000203166002900480601f016020809104026020016040519081016040528092919081815260200182805460018160011615610100020316600290048015611f2f5780601f10611f0457610100808354040283529160200191611f2f565b820191906000526020600020905b815481529060010190602001808311611f1257829003601f168201915b505050505090806001015490806002018054600181600116156101000203166002900480601f016020809104026020016040519081016040528092919081815260200182805460018160011615610100020316600290048015611fd35780601f10611fa857610100808354040283529160200191611fd3565b820191906000526020600020905b815481529060010190602001808311611fb657829003601f168201915b5050505050908060030160009054906101000a900473ffffffffffffffffffffffffffffffffffffffff1690806004018054600181600116156101000203166002900480601f0160208091040260200160405190810160405280929190818152602001828054600181600116156101000203166002900480156120975780601f1061206c57610100808354040283529160200191612097565b820191906000526020600020905b81548152906001019060200180831161207a57829003601f168201915b5050505050905085565b6000809054906101000a900473ffffffffffffffffffffffffffffffffffffffff1673ffffffffffffffffffffffffffffffffffffffff163373ffffffffffffffffffffffffffffffffffffffff161415156120fc57600080fd5b60038281548110151561210b57fe5b9060005260206000209060090201600801819080600181540180825580915050906001820390600052602060002001600090919290919091509080519060200190612157929190612a94565b50505050565b612165612bda565b60a0604051908101604052808781526020018681526020018581526020018473ffffffffffffffffffffffffffffffffffffffff1681526020018381525090506002819080600181540180825580915050906001820390600052602060002090600602016000909192909190915060008201518160000190805190602001906121ef929190612b5a565b50602082015181600101556040820151816002019080519060200190612216929190612b5a565b5060608201518160030160006101000a81548173ffffffffffffffffffffffffffffffffffffffff021916908373ffffffffffffffffffffffffffffffffffffffff160217905550608082015181600401908051906020019061227a929190612b5a565b505050507f84d938253a09f6f1c18877f03794c04e160d67d7ec43ef4aa6de4dd0db9720dc6001600280549050036040518082815260200191505060405180910390a1505050505050565b6003818154811015156122d457fe5b90600052602060002090600902016000915090508060000160009054906101000a900473ffffffffffffffffffffffffffffffffffffffff16908060010160009054906101000a900473ffffffffffffffffffffffffffffffffffffffff16908060020160009054906101000a900473ffffffffffffffffffffffffffffffffffffffff1690806005018054600181600116156101000203166002900480601f0160208091040260200160405190810160405280929190818152602001828054600181600116156101000203166002900480156123f25780601f106123c7576101008083540402835291602001916123f2565b820191906000526020600020905b8154815290600101906020018083116123d557829003601f168201915b505050505090806006018054600181600116156101000203166002900480601f0160208091040260200160405190810160405280929190818152602001828054600181600116156101000203166002900480156124905780601f1061246557610100808354040283529160200191612490565b820191906000526020600020905b81548152906001019060200180831161247357829003601f168201915b505050505090806007018054600181600116156101000203166002900480601f01602080910402602001604051908101604052809291908181526020018280546001816001161561010002031660029004801561252e5780601f106125035761010080835404028352916020019161252e565b820191906000526020600020905b81548152906001019060200180831161251157829003601f168201915b5050505050905086565b60608060038481548110151561254a57fe5b90600052602060002090600902016003018381548110151561256857fe5b9060005260206000200160038581548110151561258157fe5b90600052602060002090600902016004018481548110151561259f57fe5b90600052602060002001818054600181600116156101000203166002900480601f01602080910402602001604051908101604052809291908181526020018280546001816001161561010002031660029004801561263e5780601f106126135761010080835404028352916020019161263e565b820191906000526020600020905b81548152906001019060200180831161262157829003601f168201915b50505050509150808054600181600116156101000203166002900480601f0160208091040260200160405190810160405280929190818152602001828054600181600116156101000203166002900480156126da5780601f106126af576101008083540402835291602001916126da565b820191906000526020600020905b8154815290600101906020018083116126bd57829003601f168201915b50505050509050915091509250929050565b6000809054906101000a900473ffffffffffffffffffffffffffffffffffffffff1673ffffffffffffffffffffffffffffffffffffffff163373ffffffffffffffffffffffffffffffffffffffff1614151561274757600080fd5b6060612751612c20565b6101206040519081016040528060028a81548110151561276d57fe5b906000526020600020906006020160030160009054906101000a900473ffffffffffffffffffffffffffffffffffffffff1673ffffffffffffffffffffffffffffffffffffffff1681526020016001898154811015156127c957fe5b906000526020600020906006020160030160009054906101000a900473ffffffffffffffffffffffffffffffffffffffff1673ffffffffffffffffffffffffffffffffffffffff16815260200160018881548110151561282557fe5b906000526020600020906006020160030160009054906101000a900473ffffffffffffffffffffffffffffffffffffffff1673ffffffffffffffffffffffffffffffffffffffff1681526020018381526020018381526020018681526020018581526020018481526020018381525090506003819080600181540180825580915050906001820390600052602060002090600902016000909192909190915060008201518160000160006101000a81548173ffffffffffffffffffffffffffffffffffffffff021916908373ffffffffffffffffffffffffffffffffffffffff16021790555060208201518160010160006101000a81548173ffffffffffffffffffffffffffffffffffffffff021916908373ffffffffffffffffffffffffffffffffffffffff16021790555060408201518160020160006101000a81548173ffffffffffffffffffffffffffffffffffffffff021916908373ffffffffffffffffffffffffffffffffffffffff16021790555060608201518160030190805190602001906129b5929190612caf565b5060808201518160040190805190602001906129d2929190612caf565b5060a08201518160050190805190602001906129ef929190612b5a565b5060c0820151816006019080519060200190612a0c929190612b5a565b5060e0820151816007019080519060200190612a29929190612b5a565b50610100820151816008019080519060200190612a47929190612caf565b505050507fca0f0263e10a85892496523b99b9450d1d6e40cbce860b150a7bbf062fbd4e406001600380549050036040518082815260200191505060405180910390a15050505050505050565b828054600181600116156101000203166002900490600052602060002090601f016020900481019282601f10612ad557805160ff1916838001178555612b03565b82800160010185558215612b03579182015b82811115612b02578251825591602001919060010190612ae7565b5b509050612b109190612d0f565b5090565b60a060405190810160405280606081526020016000815260200160608152602001600073ffffffffffffffffffffffffffffffffffffffff168152602001606081525090565b828054600181600116156101000203166002900490600052602060002090601f016020900481019282601f10612b9b57805160ff1916838001178555612bc9565b82800160010185558215612bc9579182015b82811115612bc8578251825591602001919060010190612bad565b5b509050612bd69190612d0f565b5090565b60a060405190810160405280606081526020016000815260200160608152602001600073ffffffffffffffffffffffffffffffffffffffff168152602001606081525090565b61012060405190810160405280600073ffffffffffffffffffffffffffffffffffffffff168152602001600073ffffffffffffffffffffffffffffffffffffffff168152602001600073ffffffffffffffffffffffffffffffffffffffff1681526020016060815260200160608152602001606081526020016060815260200160608152602001606081525090565b828054828255906000526020600020908101928215612cfe579160200282015b82811115612cfd578251829080519060200190612ced929190612b5a565b5091602001919060010190612ccf565b5b509050612d0b9190612d34565b5090565b612d3191905b80821115612d2d576000816000905550600101612d15565b5090565b90565b612d5d91905b80821115612d595760008181612d509190612d60565b50600101612d3a565b5090565b90565b50805460018160011615610100020316600290046000825580601f10612d865750612da5565b601f016020900490600052602060002090810190612da49190612d0f565b5b5056fea165627a7a72305820c48b583ec43a4c85e69f798702ed0b0fb8bd9e92b21effac7e457ae8db13dfa30029",
  "linkReferences": {},
  "deployedLinkReferences": {}
}