{
  "_format": "hh-sol-artifact-1",
  "contractName": "Court",
  "sourceName": "contracts/Court.sol",
  "abi": [
    {
      "inputs": [],
      "stateMutability": "nonpayable",
      "type": "constructor"
    },
    {
      "anonymous": false,
      "inputs": [
        {
          "indexed": true,
          "internalType": "uint256",
          "name": "caseId",
          "type": "uint256"
        }
      ],
      "name": "CaseCreated",
      "type": "event"
    },
    {
      "anonymous": false,
      "inputs": [
        {
          "indexed": false,
          "internalType": "uint256",
          "name": "_caseId",
          "type": "uint256"
        }
      ],
      "name": "Createdcase",
      "type": "event"
    },
    {
      "anonymous": false,
      "inputs": [
        {
          "indexed": false,
          "internalType": "uint256",
          "name": "_culpritId",
          "type": "uint256"
        }
      ],
      "name": "culpritRegistered",
      "type": "event"
    },
    {
      "anonymous": false,
      "inputs": [
        {
          "indexed": false,
          "internalType": "uint256",
          "name": "_judgeId",
          "type": "uint256"
        }
      ],
      "name": "judgeRegistered",
      "type": "event"
    },
    {
      "anonymous": false,
      "inputs": [
        {
          "indexed": false,
          "internalType": "uint256",
          "name": "_lawyerId",
          "type": "uint256"
        }
      ],
      "name": "lawyerRegistered",
      "type": "event"
    },
    {
      "anonymous": false,
      "inputs": [
        {
          "indexed": false,
          "internalType": "uint256",
          "name": "_victimId",
          "type": "uint256"
        }
      ],
      "name": "victimRegistered",
      "type": "event"
    },
    {
      "inputs": [
        {
          "internalType": "bool",
          "name": "_isLawyer",
          "type": "bool"
        },
        {
          "internalType": "bool",
          "name": "_isVictim",
          "type": "bool"
        },
        {
          "internalType": "bool",
          "name": "_isCulprit",
          "type": "bool"
        },
        {
          "internalType": "uint256",
          "name": "_ljId",
          "type": "uint256"
        },
        {
          "internalType": "uint256",
          "name": "_caseId",
          "type": "uint256"
        },
        {
          "internalType": "string",
          "name": "_key",
          "type": "string"
        }
      ],
      "name": "addEncryptedKey",
      "outputs": [],
      "stateMutability": "nonpayable",
      "type": "function"
    },
    {
      "inputs": [
        {
          "internalType": "uint256",
          "name": "",
          "type": "uint256"
        }
      ],
      "name": "cases",
      "outputs": [
        {
          "internalType": "address",
          "name": "judge",
          "type": "address"
        },
        {
          "internalType": "address",
          "name": "prosecutor",
          "type": "address"
        },
        {
          "internalType": "address",
          "name": "defence",
          "type": "address"
        },
        {
          "internalType": "string",
          "name": "victim_name",
          "type": "string"
        },
        {
          "internalType": "string",
          "name": "culprit_name",
          "type": "string"
        },
        {
          "internalType": "string",
          "name": "details",
          "type": "string"
        }
      ],
      "stateMutability": "view",
      "type": "function"
    },
    {
      "inputs": [
        {
          "internalType": "uint256",
          "name": "",
          "type": "uint256"
        }
      ],
      "name": "culprits",
      "outputs": [
        {
          "internalType": "string",
          "name": "name",
          "type": "string"
        },
        {
          "internalType": "uint256",
          "name": "phone",
          "type": "uint256"
        },
        {
          "internalType": "string",
          "name": "email",
          "type": "string"
        },
        {
          "internalType": "address",
          "name": "addr",
          "type": "address"
        },
        {
          "internalType": "string",
          "name": "pubkey",
          "type": "string"
        }
      ],
      "stateMutability": "view",
      "type": "function"
    },
    {
      "inputs": [
        {
          "internalType": "bool",
          "name": "_isLawyer",
          "type": "bool"
        },
        {
          "internalType": "bool",
          "name": "_isVictim",
          "type": "bool"
        },
        {
          "internalType": "bool",
          "name": "_isCulprit",
          "type": "bool"
        },
        {
          "internalType": "uint256",
          "name": "_ljId",
          "type": "uint256"
        },
        {
          "internalType": "uint256",
          "name": "_caseId",
          "type": "uint256"
        }
      ],
      "name": "getEncryptedKey",
      "outputs": [
        {
          "internalType": "string",
          "name": "",
          "type": "string"
        }
      ],
      "stateMutability": "view",
      "type": "function"
    },
    {
      "inputs": [
        {
          "internalType": "uint256",
          "name": "_caseId",
          "type": "uint256"
        }
      ],
      "name": "getEvidenceFileHashes",
      "outputs": [
        {
          "internalType": "string[]",
          "name": "",
          "type": "string[]"
        }
      ],
      "stateMutability": "view",
      "type": "function"
    },
    {
      "inputs": [
        {
          "internalType": "uint256",
          "name": "_caseId",
          "type": "uint256"
        }
      ],
      "name": "getTranscriptHashes",
      "outputs": [
        {
          "internalType": "string[]",
          "name": "",
          "type": "string[]"
        }
      ],
      "stateMutability": "view",
      "type": "function"
    },
    {
      "inputs": [
        {
          "internalType": "uint256",
          "name": "",
          "type": "uint256"
        }
      ],
      "name": "judges",
      "outputs": [
        {
          "internalType": "string",
          "name": "name",
          "type": "string"
        },
        {
          "internalType": "uint256",
          "name": "phone",
          "type": "uint256"
        },
        {
          "internalType": "string",
          "name": "email",
          "type": "string"
        },
        {
          "internalType": "address",
          "name": "addr",
          "type": "address"
        },
        {
          "internalType": "string",
          "name": "pubkey",
          "type": "string"
        }
      ],
      "stateMutability": "view",
      "type": "function"
    },
    {
      "inputs": [
        {
          "internalType": "uint256",
          "name": "",
          "type": "uint256"
        }
      ],
      "name": "lawyers",
      "outputs": [
        {
          "internalType": "string",
          "name": "name",
          "type": "string"
        },
        {
          "internalType": "uint256",
          "name": "phone",
          "type": "uint256"
        },
        {
          "internalType": "string",
          "name": "email",
          "type": "string"
        },
        {
          "internalType": "address",
          "name": "addr",
          "type": "address"
        },
        {
          "internalType": "string",
          "name": "pubkey",
          "type": "string"
        }
      ],
      "stateMutability": "view",
      "type": "function"
    },
    {
      "inputs": [
        {
          "internalType": "address",
          "name": "_judge",
          "type": "address"
        },
        {
          "internalType": "address",
          "name": "_prosecutor",
          "type": "address"
        },
        {
          "internalType": "address",
          "name": "_defence",
          "type": "address"
        },
        {
          "internalType": "string",
          "name": "_victimName",
          "type": "string"
        },
        {
          "internalType": "string",
          "name": "_culpritName",
          "type": "string"
        },
        {
          "internalType": "string",
          "name": "_details",
          "type": "string"
        }
      ],
      "name": "newCase",
      "outputs": [],
      "stateMutability": "nonpayable",
      "type": "function"
    },
    {
      "inputs": [],
      "name": "owner",
      "outputs": [
        {
          "internalType": "address",
          "name": "",
          "type": "address"
        }
      ],
      "stateMutability": "view",
      "type": "function"
    },
    {
      "inputs": [
        {
          "internalType": "string",
          "name": "_name",
          "type": "string"
        },
        {
          "internalType": "uint256",
          "name": "_phone",
          "type": "uint256"
        },
        {
          "internalType": "string",
          "name": "_email",
          "type": "string"
        },
        {
          "internalType": "address",
          "name": "_addr",
          "type": "address"
        },
        {
          "internalType": "string",
          "name": "_pubkey",
          "type": "string"
        }
      ],
      "name": "registerCulprit",
      "outputs": [],
      "stateMutability": "nonpayable",
      "type": "function"
    },
    {
      "inputs": [
        {
          "internalType": "string",
          "name": "_name",
          "type": "string"
        },
        {
          "internalType": "uint256",
          "name": "_phone",
          "type": "uint256"
        },
        {
          "internalType": "string",
          "name": "_email",
          "type": "string"
        },
        {
          "internalType": "address",
          "name": "_addr",
          "type": "address"
        },
        {
          "internalType": "string",
          "name": "_pubkey",
          "type": "string"
        }
      ],
      "name": "registerJudge",
      "outputs": [],
      "stateMutability": "nonpayable",
      "type": "function"
    },
    {
      "inputs": [
        {
          "internalType": "string",
          "name": "_name",
          "type": "string"
        },
        {
          "internalType": "uint256",
          "name": "_phone",
          "type": "uint256"
        },
        {
          "internalType": "string",
          "name": "_email",
          "type": "string"
        },
        {
          "internalType": "address",
          "name": "_addr",
          "type": "address"
        },
        {
          "internalType": "string",
          "name": "_pubkey",
          "type": "string"
        }
      ],
      "name": "registerLawyer",
      "outputs": [],
      "stateMutability": "nonpayable",
      "type": "function"
    },
    {
      "inputs": [
        {
          "internalType": "string",
          "name": "_name",
          "type": "string"
        },
        {
          "internalType": "uint256",
          "name": "_phone",
          "type": "uint256"
        },
        {
          "internalType": "string",
          "name": "_email",
          "type": "string"
        },
        {
          "internalType": "address",
          "name": "_addr",
          "type": "address"
        },
        {
          "internalType": "string",
          "name": "_pubkey",
          "type": "string"
        }
      ],
      "name": "registerVictim",
      "outputs": [],
      "stateMutability": "nonpayable",
      "type": "function"
    },
    {
      "inputs": [
        {
          "internalType": "uint256",
          "name": "_caseId",
          "type": "uint256"
        },
        {
          "internalType": "string",
          "name": "_fileHash",
          "type": "string"
        }
      ],
      "name": "uploadEvidence",
      "outputs": [],
      "stateMutability": "nonpayable",
      "type": "function"
    },
    {
      "inputs": [
        {
          "internalType": "uint256",
          "name": "_caseId",
          "type": "uint256"
        },
        {
          "internalType": "string",
          "name": "_transcriptHash",
          "type": "string"
        }
      ],
      "name": "uploadTranscript",
      "outputs": [],
      "stateMutability": "nonpayable",
      "type": "function"
    },
    {
      "inputs": [
        {
          "internalType": "uint256",
          "name": "",
          "type": "uint256"
        }
      ],
      "name": "victims",
      "outputs": [
        {
          "internalType": "string",
          "name": "name",
          "type": "string"
        },
        {
          "internalType": "uint256",
          "name": "phone",
          "type": "uint256"
        },
        {
          "internalType": "string",
          "name": "email",
          "type": "string"
        },
        {
          "internalType": "address",
          "name": "addr",
          "type": "address"
        },
        {
          "internalType": "string",
          "name": "pubkey",
          "type": "string"
        }
      ],
      "stateMutability": "view",
      "type": "function"
    }
  ],
  "bytecode": "0x608060405234801561001057600080fd5b50336000806101000a81548173ffffffffffffffffffffffffffffffffffffffff021916908373ffffffffffffffffffffffffffffffffffffffff160217905550612ed1806100606000396000f3fe608060405234801561001057600080fd5b506004361061010b5760003560e01c8063a6d47c19116100a2578063dafee77d11610071578063dafee77d146102a6578063ef6bca83146102da578063f09790dd1461030a578063f98518101461033f578063f988cce0146103735761010b565b8063a6d47c191461021e578063b06b03681461023a578063cc5f45621461026e578063d7bda8611461028a5761010b565b80635526903a116100de5780635526903a14610194578063718643e6146101b05780638da5cb5b146101cc578063a33bf6d2146101ea5761010b565b80630b651b771461011057806336fa780614610140578063382036931461015c5780634cadf20314610178575b600080fd5b61012a600480360361012591908101906128be565b6103a3565b6040516101379190612bea565b60405180910390f35b61015a60048036036101559190810190612616565b6104aa565b005b610176600480360361017191908101906127ff565b6107fb565b005b610192600480360361018d919081019061275e565b61095f565b005b6101ae60048036036101a991908101906127ff565b610b2a565b005b6101ca60048036036101c591908101906128e7565b610c8e565b005b6101d4610e0c565b6040516101e19190612b59565b60405180910390f35b61020460048036036101ff91908101906128be565b610e31565b604051610215959493929190612c2e565b60405180910390f35b610238600480360361023391908101906127ff565b61105c565b005b610254600480360361024f91908101906128be565b6111bf565b604051610265959493929190612c2e565b60405180910390f35b610288600480360361028391908101906128e7565b6113ea565b005b6102a4600480360361029f91908101906127ff565b611568565b005b6102c060048036036102bb91908101906128be565b6116cc565b6040516102d1959493929190612c2e565b60405180910390f35b6102f460048036036102ef91908101906128be565b6118f7565b6040516103019190612bea565b60405180910390f35b610324600480360361031f91908101906128be565b6119fe565b60405161033696959493929190612b74565b60405180910390f35b610359600480360361035491908101906128be565b611c6f565b60405161036a959493929190612c2e565b60405180910390f35b61038d600480360361038891908101906126e7565b611e9a565b60405161039a9190612c0c565b60405180910390f35b6060600582815481106103b257fe5b9060005260206000209060080201600601805480602002602001604051908101604052809291908181526020016000905b8282101561049f578382906000526020600020018054600181600116156101000203166002900480601f01602080910402602001604051908101604052809291908181526020018280546001816001161561010002031660029004801561048b5780601f106104605761010080835404028352916020019161048b565b820191906000526020600020905b81548152906001019060200180831161046e57829003601f168201915b5050505050815260200190600101906103e3565b505050509050919050565b6000809054906101000a900473ffffffffffffffffffffffffffffffffffffffff1673ffffffffffffffffffffffffffffffffffffffff163373ffffffffffffffffffffffffffffffffffffffff1614610539576040517f08c379a000000000000000000000000000000000000000000000000000000000815260040161053090612c96565b60405180910390fd5b6105416121ef565b6040518061010001604052808873ffffffffffffffffffffffffffffffffffffffff1681526020018773ffffffffffffffffffffffffffffffffffffffff1681526020018673ffffffffffffffffffffffffffffffffffffffff16815260200185815260200184815260200183815260200160006040519080825280602002602001820160405280156105e857816020015b60608152602001906001900390816105d35790505b508152602001600060405190808252806020026020018201604052801561062357816020015b606081526020019060019003908161060e5790505b508152509050600581908060018154018082558091505060019003906000526020600020906008020160009091909190915060008201518160000160006101000a81548173ffffffffffffffffffffffffffffffffffffffff021916908373ffffffffffffffffffffffffffffffffffffffff16021790555060208201518160010160006101000a81548173ffffffffffffffffffffffffffffffffffffffff021916908373ffffffffffffffffffffffffffffffffffffffff16021790555060408201518160020160006101000a81548173ffffffffffffffffffffffffffffffffffffffff021916908373ffffffffffffffffffffffffffffffffffffffff1602179055506060820151816003019080519060200190610746929190612276565b506080820151816004019080519060200190610763929190612276565b5060a0820151816005019080519060200190610780929190612276565b5060c082015181600601908051906020019061079d9291906122f6565b5060e08201518160070190805190602001906107ba9291906122f6565b5050506001600580549050037f18b36092ac212dd4064430eaa7385b398ad5a741f1b5246d7cd1b62847ba111a60405160405180910390a250505050505050565b610803612356565b6040518060a001604052808781526020018681526020018581526020018473ffffffffffffffffffffffffffffffffffffffff1681526020018381525090506003819080600181540180825580915050600190039060005260206000209060060201600090919091909150600082015181600001908051906020019061088a929190612276565b506020820151816001015560408201518160020190805190602001906108b1929190612276565b5060608201518160030160006101000a81548173ffffffffffffffffffffffffffffffffffffffff021916908373ffffffffffffffffffffffffffffffffffffffff1602179055506080820151816004019080519060200190610915929190612276565b5050507faa6ea72649e9d2c3ae1ae0af6432f07e85482757eaa42801cfb0f158ff1a73ff60016003805490500360405161094f9190612cd6565b60405180910390a1505050505050565b6000809054906101000a900473ffffffffffffffffffffffffffffffffffffffff1673ffffffffffffffffffffffffffffffffffffffff163373ffffffffffffffffffffffffffffffffffffffff16146109ee576040517f08c379a00000000000000000000000000000000000000000000000000000000081526004016109e590612c96565b60405180910390fd5b8515610a3d578060018481548110610a0257fe5b906000526020600020906006020160050160008481526020019081526020016000209080519060200190610a3792919061239b565b50610b22565b8415610a8c578060038481548110610a5157fe5b906000526020600020906006020160050160008481526020019081526020016000209080519060200190610a8692919061239b565b50610b21565b8315610adb578060048481548110610aa057fe5b906000526020600020906006020160050160008481526020019081526020016000209080519060200190610ad592919061239b565b50610b20565b8060028481548110610ae957fe5b906000526020600020906006020160050160008481526020019081526020016000209080519060200190610b1e92919061239b565b505b5b5b505050505050565b610b3261241b565b6040518060a001604052808781526020018681526020018581526020018473ffffffffffffffffffffffffffffffffffffffff16815260200183815250905060048190806001815401808255809150506001900390600052602060002090600602016000909190919091506000820151816000019080519060200190610bb9929190612276565b50602082015181600101556040820151816002019080519060200190610be0929190612276565b5060608201518160030160006101000a81548173ffffffffffffffffffffffffffffffffffffffff021916908373ffffffffffffffffffffffffffffffffffffffff1602179055506080820151816004019080519060200190610c44929190612276565b5050507f8ff931c30bf4e1d58a78099401cfaa130e597bdaed79638b45bf0099c531011c600160048054905003604051610c7e9190612cd6565b60405180910390a1505050505050565b8160058181548110610c9c57fe5b906000526020600020906008020160010160009054906101000a900473ffffffffffffffffffffffffffffffffffffffff1673ffffffffffffffffffffffffffffffffffffffff163373ffffffffffffffffffffffffffffffffffffffff161480610d70575060058181548110610d0f57fe5b906000526020600020906008020160020160009054906101000a900473ffffffffffffffffffffffffffffffffffffffff1673ffffffffffffffffffffffffffffffffffffffff163373ffffffffffffffffffffffffffffffffffffffff16145b610daf576040517f08c379a0000000000000000000000000000000000000000000000000000000008152600401610da690612cb6565b60405180910390fd5b60058381548110610dbc57fe5b906000526020600020906008020160060182908060018154018082558091505060019003906000526020600020016000909190919091509080519060200190610e0692919061239b565b50505050565b6000809054906101000a900473ffffffffffffffffffffffffffffffffffffffff1681565b60018181548110610e3e57fe5b9060005260206000209060060201600091509050806000018054600181600116156101000203166002900480601f016020809104026020016040519081016040528092919081815260200182805460018160011615610100020316600290048015610eea5780601f10610ebf57610100808354040283529160200191610eea565b820191906000526020600020905b815481529060010190602001808311610ecd57829003601f168201915b505050505090806001015490806002018054600181600116156101000203166002900480601f016020809104026020016040519081016040528092919081815260200182805460018160011615610100020316600290048015610f8e5780601f10610f6357610100808354040283529160200191610f8e565b820191906000526020600020905b815481529060010190602001808311610f7157829003601f168201915b5050505050908060030160009054906101000a900473ffffffffffffffffffffffffffffffffffffffff1690806004018054600181600116156101000203166002900480601f0160208091040260200160405190810160405280929190818152602001828054600181600116156101000203166002900480156110525780601f1061102757610100808354040283529160200191611052565b820191906000526020600020905b81548152906001019060200180831161103557829003601f168201915b5050505050905085565b611064612460565b6040518060a001604052808781526020018681526020018581526020018473ffffffffffffffffffffffffffffffffffffffff168152602001838152509050600181908060018154018082558091505060019003906000526020600020906006020160009091909190915060008201518160000190805190602001906110eb929190612276565b50602082015181600101556040820151816002019080519060200190611112929190612276565b5060608201518160030160006101000a81548173ffffffffffffffffffffffffffffffffffffffff021916908373ffffffffffffffffffffffffffffffffffffffff1602179055506080820151816004019080519060200190611176929190612276565b5050507fd27034f23f8291ab86ab3da722bb1ce4ddfe94c2f69c7e91d98ff4c57b420ede60018080549050036040516111af9190612cd6565b60405180910390a1505050505050565b600281815481106111cc57fe5b9060005260206000209060060201600091509050806000018054600181600116156101000203166002900480601f0160208091040260200160405190810160405280929190818152602001828054600181600116156101000203166002900480156112785780601f1061124d57610100808354040283529160200191611278565b820191906000526020600020905b81548152906001019060200180831161125b57829003601f168201915b505050505090806001015490806002018054600181600116156101000203166002900480601f01602080910402602001604051908101604052809291908181526020018280546001816001161561010002031660029004801561131c5780601f106112f15761010080835404028352916020019161131c565b820191906000526020600020905b8154815290600101906020018083116112ff57829003601f168201915b5050505050908060030160009054906101000a900473ffffffffffffffffffffffffffffffffffffffff1690806004018054600181600116156101000203166002900480601f0160208091040260200160405190810160405280929190818152602001828054600181600116156101000203166002900480156113e05780601f106113b5576101008083540402835291602001916113e0565b820191906000526020600020905b8154815290600101906020018083116113c357829003601f168201915b5050505050905085565b81600581815481106113f857fe5b906000526020600020906008020160010160009054906101000a900473ffffffffffffffffffffffffffffffffffffffff1673ffffffffffffffffffffffffffffffffffffffff163373ffffffffffffffffffffffffffffffffffffffff1614806114cc57506005818154811061146b57fe5b906000526020600020906008020160020160009054906101000a900473ffffffffffffffffffffffffffffffffffffffff1673ffffffffffffffffffffffffffffffffffffffff163373ffffffffffffffffffffffffffffffffffffffff16145b61150b576040517f08c379a000000000000000000000000000000000000000000000000000000000815260040161150290612cb6565b60405180910390fd5b6005838154811061151857fe5b90600052602060002090600802016007018290806001815401808255809150506001900390600052602060002001600090919091909150908051906020019061156292919061239b565b50505050565b6115706124a5565b6040518060a001604052808781526020018681526020018581526020018473ffffffffffffffffffffffffffffffffffffffff168152602001838152509050600281908060018154018082558091505060019003906000526020600020906006020160009091909190915060008201518160000190805190602001906115f7929190612276565b5060208201518160010155604082015181600201908051906020019061161e929190612276565b5060608201518160030160006101000a81548173ffffffffffffffffffffffffffffffffffffffff021916908373ffffffffffffffffffffffffffffffffffffffff1602179055506080820151816004019080519060200190611682929190612276565b5050507f84d938253a09f6f1c18877f03794c04e160d67d7ec43ef4aa6de4dd0db9720dc6001600280549050036040516116bc9190612cd6565b60405180910390a1505050505050565b600381815481106116d957fe5b9060005260206000209060060201600091509050806000018054600181600116156101000203166002900480601f0160208091040260200160405190810160405280929190818152602001828054600181600116156101000203166002900480156117855780601f1061175a57610100808354040283529160200191611785565b820191906000526020600020905b81548152906001019060200180831161176857829003601f168201915b505050505090806001015490806002018054600181600116156101000203166002900480601f0160208091040260200160405190810160405280929190818152602001828054600181600116156101000203166002900480156118295780601f106117fe57610100808354040283529160200191611829565b820191906000526020600020905b81548152906001019060200180831161180c57829003601f168201915b5050505050908060030160009054906101000a900473ffffffffffffffffffffffffffffffffffffffff1690806004018054600181600116156101000203166002900480601f0160208091040260200160405190810160405280929190818152602001828054600181600116156101000203166002900480156118ed5780601f106118c2576101008083540402835291602001916118ed565b820191906000526020600020905b8154815290600101906020018083116118d057829003601f168201915b5050505050905085565b60606005828154811061190657fe5b9060005260206000209060080201600701805480602002602001604051908101604052809291908181526020016000905b828210156119f3578382906000526020600020018054600181600116156101000203166002900480601f0160208091040260200160405190810160405280929190818152602001828054600181600116156101000203166002900480156119df5780601f106119b4576101008083540402835291602001916119df565b820191906000526020600020905b8154815290600101906020018083116119c257829003601f168201915b505050505081526020019060010190611937565b505050509050919050565b60058181548110611a0b57fe5b90600052602060002090600802016000915090508060000160009054906101000a900473ffffffffffffffffffffffffffffffffffffffff16908060010160009054906101000a900473ffffffffffffffffffffffffffffffffffffffff16908060020160009054906101000a900473ffffffffffffffffffffffffffffffffffffffff1690806003018054600181600116156101000203166002900480601f016020809104026020016040519081016040528092919081815260200182805460018160011615610100020316600290048015611b295780601f10611afe57610100808354040283529160200191611b29565b820191906000526020600020905b815481529060010190602001808311611b0c57829003601f168201915b505050505090806004018054600181600116156101000203166002900480601f016020809104026020016040519081016040528092919081815260200182805460018160011615610100020316600290048015611bc75780601f10611b9c57610100808354040283529160200191611bc7565b820191906000526020600020905b815481529060010190602001808311611baa57829003601f168201915b505050505090806005018054600181600116156101000203166002900480601f016020809104026020016040519081016040528092919081815260200182805460018160011615610100020316600290048015611c655780601f10611c3a57610100808354040283529160200191611c65565b820191906000526020600020905b815481529060010190602001808311611c4857829003601f168201915b5050505050905086565b60048181548110611c7c57fe5b9060005260206000209060060201600091509050806000018054600181600116156101000203166002900480601f016020809104026020016040519081016040528092919081815260200182805460018160011615610100020316600290048015611d285780601f10611cfd57610100808354040283529160200191611d28565b820191906000526020600020905b815481529060010190602001808311611d0b57829003601f168201915b505050505090806001015490806002018054600181600116156101000203166002900480601f016020809104026020016040519081016040528092919081815260200182805460018160011615610100020316600290048015611dcc5780601f10611da157610100808354040283529160200191611dcc565b820191906000526020600020905b815481529060010190602001808311611daf57829003601f168201915b5050505050908060030160009054906101000a900473ffffffffffffffffffffffffffffffffffffffff1690806004018054600181600116156101000203166002900480601f016020809104026020016040519081016040528092919081815260200182805460018160011615610100020316600290048015611e905780601f10611e6557610100808354040283529160200191611e90565b820191906000526020600020905b815481529060010190602001808311611e7357829003601f168201915b5050505050905085565b60608515611f715760018381548110611eaf57fe5b906000526020600020906006020160050160008381526020019081526020016000208054600181600116156101000203166002900480601f016020809104026020016040519081016040528092919081815260200182805460018160011615610100020316600290048015611f655780601f10611f3a57610100808354040283529160200191611f65565b820191906000526020600020905b815481529060010190602001808311611f4857829003601f168201915b505050505090506121e6565b84156120465760038381548110611f8457fe5b906000526020600020906006020160050160008381526020019081526020016000208054600181600116156101000203166002900480601f01602080910402602001604051908101604052809291908181526020018280546001816001161561010002031660029004801561203a5780601f1061200f5761010080835404028352916020019161203a565b820191906000526020600020905b81548152906001019060200180831161201d57829003601f168201915b505050505090506121e6565b831561211b576004838154811061205957fe5b906000526020600020906006020160050160008381526020019081526020016000208054600181600116156101000203166002900480601f01602080910402602001604051908101604052809291908181526020018280546001816001161561010002031660029004801561210f5780601f106120e45761010080835404028352916020019161210f565b820191906000526020600020905b8154815290600101906020018083116120f257829003601f168201915b505050505090506121e6565b6002838154811061212857fe5b906000526020600020906006020160050160008381526020019081526020016000208054600181600116156101000203166002900480601f0160208091040260200160405190810160405280929190818152602001828054600181600116156101000203166002900480156121de5780601f106121b3576101008083540402835291602001916121de565b820191906000526020600020905b8154815290600101906020018083116121c157829003601f168201915b505050505090505b95945050505050565b604051806101000160405280600073ffffffffffffffffffffffffffffffffffffffff168152602001600073ffffffffffffffffffffffffffffffffffffffff168152602001600073ffffffffffffffffffffffffffffffffffffffff16815260200160608152602001606081526020016060815260200160608152602001606081525090565b828054600181600116156101000203166002900490600052602060002090601f016020900481019282601f106122b757805160ff19168380011785556122e5565b828001600101855582156122e5579182015b828111156122e45782518255916020019190600101906122c9565b5b5090506122f291906124ea565b5090565b828054828255906000526020600020908101928215612345579160200282015b82811115612344578251829080519060200190612334929190612276565b5091602001919060010190612316565b5b509050612352919061250f565b5090565b6040518060a00160405280606081526020016000815260200160608152602001600073ffffffffffffffffffffffffffffffffffffffff168152602001606081525090565b828054600181600116156101000203166002900490600052602060002090601f016020900481019282601f106123dc57805160ff191683800117855561240a565b8280016001018555821561240a579182015b828111156124095782518255916020019190600101906123ee565b5b50905061241791906124ea565b5090565b6040518060a00160405280606081526020016000815260200160608152602001600073ffffffffffffffffffffffffffffffffffffffff168152602001606081525090565b6040518060a00160405280606081526020016000815260200160608152602001600073ffffffffffffffffffffffffffffffffffffffff168152602001606081525090565b6040518060a00160405280606081526020016000815260200160608152602001600073ffffffffffffffffffffffffffffffffffffffff168152602001606081525090565b61250c91905b808211156125085760008160009055506001016124f0565b5090565b90565b61253891905b80821115612534576000818161252b919061253b565b50600101612515565b5090565b90565b50805460018160011615610100020316600290046000825580601f106125615750612580565b601f01602090049060005260206000209081019061257f91906124ea565b5b50565b60008135905061259281612e56565b92915050565b6000813590506125a781612e6d565b92915050565b600082601f8301126125be57600080fd5b81356125d16125cc82612d1e565b612cf1565b915080825260208301602083018583830111156125ed57600080fd5b6125f8838284612e03565b50505092915050565b60008135905061261081612e84565b92915050565b60008060008060008060c0878903121561262f57600080fd5b600061263d89828a01612583565b965050602061264e89828a01612583565b955050604061265f89828a01612583565b945050606087013567ffffffffffffffff81111561267c57600080fd5b61268889828a016125ad565b935050608087013567ffffffffffffffff8111156126a557600080fd5b6126b189828a016125ad565b92505060a087013567ffffffffffffffff8111156126ce57600080fd5b6126da89828a016125ad565b9150509295509295509295565b600080600080600060a086880312156126ff57600080fd5b600061270d88828901612598565b955050602061271e88828901612598565b945050604061272f88828901612598565b935050606061274088828901612601565b925050608061275188828901612601565b9150509295509295909350565b60008060008060008060c0878903121561277757600080fd5b600061278589828a01612598565b965050602061279689828a01612598565b95505060406127a789828a01612598565b94505060606127b889828a01612601565b93505060806127c989828a01612601565b92505060a087013567ffffffffffffffff8111156127e657600080fd5b6127f289828a016125ad565b9150509295509295509295565b600080600080600060a0868803121561281757600080fd5b600086013567ffffffffffffffff81111561283157600080fd5b61283d888289016125ad565b955050602061284e88828901612601565b945050604086013567ffffffffffffffff81111561286b57600080fd5b612877888289016125ad565b935050606061288888828901612583565b925050608086013567ffffffffffffffff8111156128a557600080fd5b6128b1888289016125ad565b9150509295509295909350565b6000602082840312156128d057600080fd5b60006128de84828501612601565b91505092915050565b600080604083850312156128fa57600080fd5b600061290885828601612601565b925050602083013567ffffffffffffffff81111561292557600080fd5b612931858286016125ad565b9150509250929050565b60006129478383612a0c565b905092915050565b61295881612dbb565b82525050565b600061296982612d5a565b6129738185612d88565b93508360208202850161298585612d4a565b8060005b858110156129c157848403895281516129a2858261293b565b94506129ad83612d7b565b925060208a01995050600181019050612989565b50829750879550505050505092915050565b60006129de82612d70565b6129e88185612daa565b93506129f8818560208601612e12565b612a0181612e45565b840191505092915050565b6000612a1782612d65565b612a218185612d99565b9350612a31818560208601612e12565b612a3a81612e45565b840191505092915050565b6000612a5082612d65565b612a5a8185612daa565b9350612a6a818560208601612e12565b612a7381612e45565b840191505092915050565b6000612a8b602183612daa565b91507f4f6e6c79206f776e65722063616e2063616c6c20746869732066756e6374696f60008301527f6e000000000000000000000000000000000000000000000000000000000000006020830152604082019050919050565b6000612af1602b83612daa565b91507f4f6e6c792070726f73656375746f72206f7220646566656e73652063616e207560008301527f706c6f61642066696c65730000000000000000000000000000000000000000006020830152604082019050919050565b612b5381612df9565b82525050565b6000602082019050612b6e600083018461294f565b92915050565b600060c082019050612b89600083018961294f565b612b96602083018861294f565b612ba3604083018761294f565b8181036060830152612bb58186612a45565b90508181036080830152612bc98185612a45565b905081810360a0830152612bdd8184612a45565b9050979650505050505050565b60006020820190508181036000830152612c04818461295e565b905092915050565b60006020820190508181036000830152612c2681846129d3565b905092915050565b600060a0820190508181036000830152612c488188612a45565b9050612c576020830187612b4a565b8181036040830152612c698186612a45565b9050612c78606083018561294f565b8181036080830152612c8a8184612a45565b90509695505050505050565b60006020820190508181036000830152612caf81612a7e565b9050919050565b60006020820190508181036000830152612ccf81612ae4565b9050919050565b6000602082019050612ceb6000830184612b4a565b92915050565b6000604051905081810181811067ffffffffffffffff82111715612d1457600080fd5b8060405250919050565b600067ffffffffffffffff821115612d3557600080fd5b601f19601f8301169050602081019050919050565b6000819050602082019050919050565b600081519050919050565b600081519050919050565b600081519050919050565b6000602082019050919050565b600082825260208201905092915050565b600082825260208201905092915050565b600082825260208201905092915050565b6000612dc682612dd9565b9050919050565b60008115159050919050565b600073ffffffffffffffffffffffffffffffffffffffff82169050919050565b6000819050919050565b82818337600083830152505050565b60005b83811015612e30578082015181840152602081019050612e15565b83811115612e3f576000848401525b50505050565b6000601f19601f8301169050919050565b612e5f81612dbb565b8114612e6a57600080fd5b50565b612e7681612dcd565b8114612e8157600080fd5b50565b612e8d81612df9565b8114612e9857600080fd5b5056fea26469706673582212203b1a2c77b361daece0f4de00d5d5d4be00896959c00af713251af39f64adf61664736f6c63430006000033",
  "linkReferences": {},
  "deployedLinkReferences": {}
}