{
  "_format": "hh-sol-artifact-1",
  "contractName": "Court",
  "sourceName": "contracts/Court.sol",
  "abi": [
    {
      "inputs": [],
      "stateMutability": "nonpayable",
      "type": "constructor"
    },
    {
      "anonymous": false,
      "inputs": [
        {
          "indexed": false,
          "internalType": "uint256",
          "name": "_caseId",
          "type": "uint256"
        }
      ],
      "name": "Createdcase",
      "type": "event"
    },
    {
      "anonymous": false,
      "inputs": [
        {
          "indexed": true,
          "internalType": "uint256",
          "name": "caseId",
          "type": "uint256"
        }
      ],
      "name": "caseCreated",
      "type": "event"
    },
    {
      "anonymous": false,
      "inputs": [
        {
          "indexed": false,
          "internalType": "uint256",
          "name": "_judgeId",
          "type": "uint256"
        }
      ],
      "name": "judgeRegistered",
      "type": "event"
    },
    {
      "anonymous": false,
      "inputs": [
        {
          "indexed": false,
          "internalType": "uint256",
          "name": "_lawyerId",
          "type": "uint256"
        }
      ],
      "name": "lawyerRegistered",
      "type": "event"
    },
    {
      "anonymous": false,
      "inputs": [
        {
          "indexed": false,
          "internalType": "uint256",
          "name": "_partyId",
          "type": "uint256"
        }
      ],
      "name": "partyRegistered",
      "type": "event"
    },
    {
      "inputs": [
        {
          "internalType": "bool",
          "name": "_isLawyer",
          "type": "bool"
        },
        {
          "internalType": "bool",
          "name": "_isParty",
          "type": "bool"
        },
        {
          "internalType": "uint256",
          "name": "_ljId",
          "type": "uint256"
        },
        {
          "internalType": "uint256",
          "name": "_caseId",
          "type": "uint256"
        },
        {
          "internalType": "string",
          "name": "_key",
          "type": "string"
        }
      ],
      "name": "addEncryptedKey",
      "outputs": [],
      "stateMutability": "nonpayable",
      "type": "function"
    },
    {
      "inputs": [
        {
          "internalType": "uint256",
          "name": "",
          "type": "uint256"
        }
      ],
      "name": "cases",
      "outputs": [
        {
          "internalType": "address",
          "name": "judge",
          "type": "address"
        },
        {
          "internalType": "address",
          "name": "prosecutor",
          "type": "address"
        },
        {
          "internalType": "address",
          "name": "defence",
          "type": "address"
        },
        {
          "internalType": "string",
          "name": "victim_name",
          "type": "string"
        },
        {
          "internalType": "string",
          "name": "culprit_name",
          "type": "string"
        },
        {
          "internalType": "string",
          "name": "details",
          "type": "string"
        }
      ],
      "stateMutability": "view",
      "type": "function"
    },
    {
      "inputs": [
        {
          "internalType": "bool",
          "name": "_isLawyer",
          "type": "bool"
        },
        {
          "internalType": "bool",
          "name": "_isParty",
          "type": "bool"
        },
        {
          "internalType": "uint256",
          "name": "_ljId",
          "type": "uint256"
        },
        {
          "internalType": "uint256",
          "name": "_caseId",
          "type": "uint256"
        }
      ],
      "name": "getEncryptedKey",
      "outputs": [
        {
          "internalType": "string",
          "name": "",
          "type": "string"
        }
      ],
      "stateMutability": "view",
      "type": "function"
    },
    {
      "inputs": [
        {
          "internalType": "uint256",
          "name": "_caseId",
          "type": "uint256"
        }
      ],
      "name": "getEvidenceFileHashes",
      "outputs": [
        {
          "internalType": "string[]",
          "name": "",
          "type": "string[]"
        }
      ],
      "stateMutability": "view",
      "type": "function"
    },
    {
      "inputs": [
        {
          "internalType": "uint256",
          "name": "_caseId",
          "type": "uint256"
        }
      ],
      "name": "getTranscriptHashes",
      "outputs": [
        {
          "internalType": "string[]",
          "name": "",
          "type": "string[]"
        }
      ],
      "stateMutability": "view",
      "type": "function"
    },
    {
      "inputs": [
        {
          "internalType": "uint256",
          "name": "",
          "type": "uint256"
        }
      ],
      "name": "judges",
      "outputs": [
        {
          "internalType": "string",
          "name": "name",
          "type": "string"
        },
        {
          "internalType": "uint256",
          "name": "phone",
          "type": "uint256"
        },
        {
          "internalType": "string",
          "name": "email",
          "type": "string"
        },
        {
          "internalType": "address",
          "name": "addr",
          "type": "address"
        },
        {
          "internalType": "string",
          "name": "pubkey",
          "type": "string"
        }
      ],
      "stateMutability": "view",
      "type": "function"
    },
    {
      "inputs": [
        {
          "internalType": "uint256",
          "name": "",
          "type": "uint256"
        }
      ],
      "name": "lawyers",
      "outputs": [
        {
          "internalType": "string",
          "name": "name",
          "type": "string"
        },
        {
          "internalType": "uint256",
          "name": "phone",
          "type": "uint256"
        },
        {
          "internalType": "string",
          "name": "email",
          "type": "string"
        },
        {
          "internalType": "address",
          "name": "addr",
          "type": "address"
        },
        {
          "internalType": "string",
          "name": "pubkey",
          "type": "string"
        }
      ],
      "stateMutability": "view",
      "type": "function"
    },
    {
      "inputs": [
        {
          "internalType": "uint256",
          "name": "_judgeId",
          "type": "uint256"
        },
        {
          "internalType": "uint256",
          "name": "_lawyer1Id",
          "type": "uint256"
        },
        {
          "internalType": "uint256",
          "name": "_lawyer2Id",
          "type": "uint256"
        },
        {
          "internalType": "string",
          "name": "_party_1_name",
          "type": "string"
        },
        {
          "internalType": "string",
          "name": "_party_2_name",
          "type": "string"
        },
        {
          "internalType": "string",
          "name": "_details",
          "type": "string"
        }
      ],
      "name": "newCase",
      "outputs": [],
      "stateMutability": "nonpayable",
      "type": "function"
    },
    {
      "inputs": [],
      "name": "owner",
      "outputs": [
        {
          "internalType": "address",
          "name": "",
          "type": "address"
        }
      ],
      "stateMutability": "view",
      "type": "function"
    },
    {
      "inputs": [
        {
          "internalType": "uint256",
          "name": "",
          "type": "uint256"
        }
      ],
      "name": "parties",
      "outputs": [
        {
          "internalType": "string",
          "name": "name",
          "type": "string"
        },
        {
          "internalType": "uint256",
          "name": "phone",
          "type": "uint256"
        },
        {
          "internalType": "string",
          "name": "email",
          "type": "string"
        },
        {
          "internalType": "address",
          "name": "addr",
          "type": "address"
        },
        {
          "internalType": "string",
          "name": "pubkey",
          "type": "string"
        }
      ],
      "stateMutability": "view",
      "type": "function"
    },
    {
      "inputs": [
        {
          "internalType": "string",
          "name": "_name",
          "type": "string"
        },
        {
          "internalType": "uint256",
          "name": "_phone",
          "type": "uint256"
        },
        {
          "internalType": "string",
          "name": "_email",
          "type": "string"
        },
        {
          "internalType": "address",
          "name": "_addr",
          "type": "address"
        },
        {
          "internalType": "string",
          "name": "_pubkey",
          "type": "string"
        }
      ],
      "name": "registerJudge",
      "outputs": [],
      "stateMutability": "nonpayable",
      "type": "function"
    },
    {
      "inputs": [
        {
          "internalType": "string",
          "name": "_name",
          "type": "string"
        },
        {
          "internalType": "uint256",
          "name": "_phone",
          "type": "uint256"
        },
        {
          "internalType": "string",
          "name": "_email",
          "type": "string"
        },
        {
          "internalType": "address",
          "name": "_addr",
          "type": "address"
        },
        {
          "internalType": "string",
          "name": "_pubkey",
          "type": "string"
        }
      ],
      "name": "registerLawyer",
      "outputs": [],
      "stateMutability": "nonpayable",
      "type": "function"
    },
    {
      "inputs": [
        {
          "internalType": "string",
          "name": "_name",
          "type": "string"
        },
        {
          "internalType": "uint256",
          "name": "_phone",
          "type": "uint256"
        },
        {
          "internalType": "string",
          "name": "_email",
          "type": "string"
        },
        {
          "internalType": "address",
          "name": "_addr",
          "type": "address"
        },
        {
          "internalType": "string",
          "name": "_pubkey",
          "type": "string"
        }
      ],
      "name": "registerParty",
      "outputs": [],
      "stateMutability": "nonpayable",
      "type": "function"
    },
    {
      "inputs": [
        {
          "internalType": "uint256",
          "name": "_caseId",
          "type": "uint256"
        },
        {
          "internalType": "string",
          "name": "_fileHash",
          "type": "string"
        }
      ],
      "name": "uploadEvidence",
      "outputs": [],
      "stateMutability": "nonpayable",
      "type": "function"
    },
    {
      "inputs": [
        {
          "internalType": "uint256",
          "name": "_caseId",
          "type": "uint256"
        },
        {
          "internalType": "string",
          "name": "_transcriptHash",
          "type": "string"
        }
      ],
      "name": "uploadTranscript",
      "outputs": [],
      "stateMutability": "nonpayable",
      "type": "function"
    }
  ],
  "bytecode": "0x608060405234801561001057600080fd5b50336000806101000a81548173ffffffffffffffffffffffffffffffffffffffff021916908373ffffffffffffffffffffffffffffffffffffffff1602179055506129c8806100606000396000f3fe608060405234801561001057600080fd5b50600436106100f55760003560e01c8063b06b036811610097578063d7bda86111610066578063d7bda861146102a0578063ef6bca83146102bc578063f09790dd146102ec578063f343d44614610321576100f5565b8063b06b036814610218578063c967b2c61461024c578063cad0edb014610268578063cc5f456214610284576100f5565b8063718643e6116100d3578063718643e61461018e5780638da5cb5b146101aa578063a33bf6d2146101c8578063a6d47c19146101fc576100f5565b80630b651b77146100fa578063625400171461012a57806370651a181461015a575b600080fd5b610114600480360361010f91908101906122e4565b61033d565b60405161012191906126e1565b60405180910390f35b610144600480360361013f9190810190612133565b610444565b6040516101519190612703565b60405180910390f35b610174600480360361016f91908101906122e4565b6106c3565b604051610185959493929190612725565b60405180910390f35b6101a860048036036101a3919081019061230d565b6108ee565b005b6101b2610a6c565b6040516101bf9190612650565b60405180910390f35b6101e260048036036101dd91908101906122e4565b610a91565b6040516101f3959493929190612725565b60405180910390f35b61021660048036036102119190810190612225565b610cbc565b005b610232600480360361022d91908101906122e4565b610e1f565b604051610243959493929190612725565b60405180910390f35b61026660048036036102619190810190612225565b61104a565b005b610282600480360361027d9190810190612196565b6111ae565b005b61029e6004803603610299919081019061230d565b611328565b005b6102ba60048036036102b59190810190612225565b6114a6565b005b6102d660048036036102d191908101906122e4565b61160a565b6040516102e391906126e1565b60405180910390f35b610306600480360361030191908101906122e4565b611711565b6040516103189695949392919061266b565b60405180910390f35b61033b60048036036103369190810190612361565b611982565b005b60606004828154811061034c57fe5b9060005260206000209060090201600601805480602002602001604051908101604052809291908181526020016000905b82821015610439578382906000526020600020018054600181600116156101000203166002900480601f0160208091040260200160405190810160405280929190818152602001828054600181600116156101000203166002900480156104255780601f106103fa57610100808354040283529160200191610425565b820191906000526020600020905b81548152906001019060200180831161040857829003601f168201915b50505050508152602001906001019061037d565b505050509050919050565b6060841561051b576001838154811061045957fe5b906000526020600020906006020160050160008381526020019081526020016000208054600181600116156101000203166002900480601f01602080910402602001604051908101604052809291908181526020018280546001816001161561010002031660029004801561050f5780601f106104e45761010080835404028352916020019161050f565b820191906000526020600020905b8154815290600101906020018083116104f257829003601f168201915b505050505090506106bb565b83156105f0576003838154811061052e57fe5b906000526020600020906006020160050160008381526020019081526020016000208054600181600116156101000203166002900480601f0160208091040260200160405190810160405280929190818152602001828054600181600116156101000203166002900480156105e45780601f106105b9576101008083540402835291602001916105e4565b820191906000526020600020905b8154815290600101906020018083116105c757829003601f168201915b505050505090506106bb565b600283815481106105fd57fe5b906000526020600020906006020160050160008381526020019081526020016000208054600181600116156101000203166002900480601f0160208091040260200160405190810160405280929190818152602001828054600181600116156101000203166002900480156106b35780601f10610688576101008083540402835291602001916106b3565b820191906000526020600020905b81548152906001019060200180831161069657829003601f168201915b505050505090505b949350505050565b600381815481106106d057fe5b9060005260206000209060060201600091509050806000018054600181600116156101000203166002900480601f01602080910402602001604051908101604052809291908181526020018280546001816001161561010002031660029004801561077c5780601f106107515761010080835404028352916020019161077c565b820191906000526020600020905b81548152906001019060200180831161075f57829003601f168201915b505050505090806001015490806002018054600181600116156101000203166002900480601f0160208091040260200160405190810160405280929190818152602001828054600181600116156101000203166002900480156108205780601f106107f557610100808354040283529160200191610820565b820191906000526020600020905b81548152906001019060200180831161080357829003601f168201915b5050505050908060030160009054906101000a900473ffffffffffffffffffffffffffffffffffffffff1690806004018054600181600116156101000203166002900480601f0160208091040260200160405190810160405280929190818152602001828054600181600116156101000203166002900480156108e45780601f106108b9576101008083540402835291602001916108e4565b820191906000526020600020905b8154815290600101906020018083116108c757829003601f168201915b5050505050905085565b81600481815481106108fc57fe5b906000526020600020906009020160010160009054906101000a900473ffffffffffffffffffffffffffffffffffffffff1673ffffffffffffffffffffffffffffffffffffffff163373ffffffffffffffffffffffffffffffffffffffff1614806109d057506004818154811061096f57fe5b906000526020600020906009020160020160009054906101000a900473ffffffffffffffffffffffffffffffffffffffff1673ffffffffffffffffffffffffffffffffffffffff163373ffffffffffffffffffffffffffffffffffffffff16145b610a0f576040517f08c379a0000000000000000000000000000000000000000000000000000000008152600401610a06906127ad565b60405180910390fd5b60048381548110610a1c57fe5b906000526020600020906009020160060182908060018154018082558091505060019003906000526020600020016000909190919091509080519060200190610a66929190611d4a565b50505050565b6000809054906101000a900473ffffffffffffffffffffffffffffffffffffffff1681565b60018181548110610a9e57fe5b9060005260206000209060060201600091509050806000018054600181600116156101000203166002900480601f016020809104026020016040519081016040528092919081815260200182805460018160011615610100020316600290048015610b4a5780601f10610b1f57610100808354040283529160200191610b4a565b820191906000526020600020905b815481529060010190602001808311610b2d57829003601f168201915b505050505090806001015490806002018054600181600116156101000203166002900480601f016020809104026020016040519081016040528092919081815260200182805460018160011615610100020316600290048015610bee5780601f10610bc357610100808354040283529160200191610bee565b820191906000526020600020905b815481529060010190602001808311610bd157829003601f168201915b5050505050908060030160009054906101000a900473ffffffffffffffffffffffffffffffffffffffff1690806004018054600181600116156101000203166002900480601f016020809104026020016040519081016040528092919081815260200182805460018160011615610100020316600290048015610cb25780601f10610c8757610100808354040283529160200191610cb2565b820191906000526020600020905b815481529060010190602001808311610c9557829003601f168201915b5050505050905085565b610cc4611dca565b6040518060a001604052808781526020018681526020018581526020018473ffffffffffffffffffffffffffffffffffffffff16815260200183815250905060018190806001815401808255809150506001900390600052602060002090600602016000909190919091506000820151816000019080519060200190610d4b929190611e0f565b50602082015181600101556040820151816002019080519060200190610d72929190611e0f565b5060608201518160030160006101000a81548173ffffffffffffffffffffffffffffffffffffffff021916908373ffffffffffffffffffffffffffffffffffffffff1602179055506080820151816004019080519060200190610dd6929190611e0f565b5050507fd27034f23f8291ab86ab3da722bb1ce4ddfe94c2f69c7e91d98ff4c57b420ede6001808054905003604051610e0f91906127cd565b60405180910390a1505050505050565b60028181548110610e2c57fe5b9060005260206000209060060201600091509050806000018054600181600116156101000203166002900480601f016020809104026020016040519081016040528092919081815260200182805460018160011615610100020316600290048015610ed85780601f10610ead57610100808354040283529160200191610ed8565b820191906000526020600020905b815481529060010190602001808311610ebb57829003601f168201915b505050505090806001015490806002018054600181600116156101000203166002900480601f016020809104026020016040519081016040528092919081815260200182805460018160011615610100020316600290048015610f7c5780601f10610f5157610100808354040283529160200191610f7c565b820191906000526020600020905b815481529060010190602001808311610f5f57829003601f168201915b5050505050908060030160009054906101000a900473ffffffffffffffffffffffffffffffffffffffff1690806004018054600181600116156101000203166002900480601f0160208091040260200160405190810160405280929190818152602001828054600181600116156101000203166002900480156110405780601f1061101557610100808354040283529160200191611040565b820191906000526020600020905b81548152906001019060200180831161102357829003601f168201915b5050505050905085565b611052611e8f565b6040518060a001604052808781526020018681526020018581526020018473ffffffffffffffffffffffffffffffffffffffff168152602001838152509050600381908060018154018082558091505060019003906000526020600020906006020160009091909190915060008201518160000190805190602001906110d9929190611e0f565b50602082015181600101556040820151816002019080519060200190611100929190611e0f565b5060608201518160030160006101000a81548173ffffffffffffffffffffffffffffffffffffffff021916908373ffffffffffffffffffffffffffffffffffffffff1602179055506080820151816004019080519060200190611164929190611e0f565b5050507fd5cf2403f32072162661fe73e39f4fb5dc66d73f6978497a2c49c3e46f8b214d60016003805490500360405161119e91906127cd565b60405180910390a1505050505050565b6000809054906101000a900473ffffffffffffffffffffffffffffffffffffffff1673ffffffffffffffffffffffffffffffffffffffff163373ffffffffffffffffffffffffffffffffffffffff161461123d576040517f08c379a00000000000000000000000000000000000000000000000000000000081526004016112349061278d565b60405180910390fd5b841561128c57806001848154811061125157fe5b906000526020600020906006020160050160008481526020019081526020016000209080519060200190611286929190611d4a565b50611321565b83156112db5780600384815481106112a057fe5b9060005260206000209060060201600501600084815260200190815260200160002090805190602001906112d5929190611d4a565b50611320565b80600284815481106112e957fe5b90600052602060002090600602016005016000848152602001908152602001600020908051906020019061131e929190611d4a565b505b5b5050505050565b816004818154811061133657fe5b906000526020600020906009020160010160009054906101000a900473ffffffffffffffffffffffffffffffffffffffff1673ffffffffffffffffffffffffffffffffffffffff163373ffffffffffffffffffffffffffffffffffffffff16148061140a5750600481815481106113a957fe5b906000526020600020906009020160020160009054906101000a900473ffffffffffffffffffffffffffffffffffffffff1673ffffffffffffffffffffffffffffffffffffffff163373ffffffffffffffffffffffffffffffffffffffff16145b611449576040517f08c379a0000000000000000000000000000000000000000000000000000000008152600401611440906127ad565b60405180910390fd5b6004838154811061145657fe5b9060005260206000209060090201600701829080600181540180825580915050600190039060005260206000200160009091909190915090805190602001906114a0929190611d4a565b50505050565b6114ae611ed4565b6040518060a001604052808781526020018681526020018581526020018473ffffffffffffffffffffffffffffffffffffffff16815260200183815250905060028190806001815401808255809150506001900390600052602060002090600602016000909190919091506000820151816000019080519060200190611535929190611e0f565b5060208201518160010155604082015181600201908051906020019061155c929190611e0f565b5060608201518160030160006101000a81548173ffffffffffffffffffffffffffffffffffffffff021916908373ffffffffffffffffffffffffffffffffffffffff16021790555060808201518160040190805190602001906115c0929190611e0f565b5050507f84d938253a09f6f1c18877f03794c04e160d67d7ec43ef4aa6de4dd0db9720dc6001600280549050036040516115fa91906127cd565b60405180910390a1505050505050565b60606004828154811061161957fe5b9060005260206000209060090201600701805480602002602001604051908101604052809291908181526020016000905b82821015611706578382906000526020600020018054600181600116156101000203166002900480601f0160208091040260200160405190810160405280929190818152602001828054600181600116156101000203166002900480156116f25780601f106116c7576101008083540402835291602001916116f2565b820191906000526020600020905b8154815290600101906020018083116116d557829003601f168201915b50505050508152602001906001019061164a565b505050509050919050565b6004818154811061171e57fe5b90600052602060002090600902016000915090508060000160009054906101000a900473ffffffffffffffffffffffffffffffffffffffff16908060010160009054906101000a900473ffffffffffffffffffffffffffffffffffffffff16908060020160009054906101000a900473ffffffffffffffffffffffffffffffffffffffff1690806003018054600181600116156101000203166002900480601f01602080910402602001604051908101604052809291908181526020018280546001816001161561010002031660029004801561183c5780601f106118115761010080835404028352916020019161183c565b820191906000526020600020905b81548152906001019060200180831161181f57829003601f168201915b505050505090806004018054600181600116156101000203166002900480601f0160208091040260200160405190810160405280929190818152602001828054600181600116156101000203166002900480156118da5780601f106118af576101008083540402835291602001916118da565b820191906000526020600020905b8154815290600101906020018083116118bd57829003601f168201915b505050505090806005018054600181600116156101000203166002900480601f0160208091040260200160405190810160405280929190818152602001828054600181600116156101000203166002900480156119785780601f1061194d57610100808354040283529160200191611978565b820191906000526020600020905b81548152906001019060200180831161195b57829003601f168201915b5050505050905086565b6000809054906101000a900473ffffffffffffffffffffffffffffffffffffffff1673ffffffffffffffffffffffffffffffffffffffff163373ffffffffffffffffffffffffffffffffffffffff1614611a11576040517f08c379a0000000000000000000000000000000000000000000000000000000008152600401611a089061278d565b60405180910390fd5b6060611a1b611f19565b60405180610120016040528060028a81548110611a3457fe5b906000526020600020906006020160030160009054906101000a900473ffffffffffffffffffffffffffffffffffffffff1673ffffffffffffffffffffffffffffffffffffffff16815260200160018981548110611a8e57fe5b906000526020600020906006020160030160009054906101000a900473ffffffffffffffffffffffffffffffffffffffff1673ffffffffffffffffffffffffffffffffffffffff16815260200160018881548110611ae857fe5b906000526020600020906006020160030160009054906101000a900473ffffffffffffffffffffffffffffffffffffffff1673ffffffffffffffffffffffffffffffffffffffff168152602001868152602001858152602001848152602001838152602001838152602001838152509050600481908060018154018082558091505060019003906000526020600020906009020160009091909190915060008201518160000160006101000a81548173ffffffffffffffffffffffffffffffffffffffff021916908373ffffffffffffffffffffffffffffffffffffffff16021790555060208201518160010160006101000a81548173ffffffffffffffffffffffffffffffffffffffff021916908373ffffffffffffffffffffffffffffffffffffffff16021790555060408201518160020160006101000a81548173ffffffffffffffffffffffffffffffffffffffff021916908373ffffffffffffffffffffffffffffffffffffffff1602179055506060820151816003019080519060200190611c76929190611e0f565b506080820151816004019080519060200190611c93929190611e0f565b5060a0820151816005019080519060200190611cb0929190611e0f565b5060c0820151816006019080519060200190611ccd929190611fa7565b5060e0820151816007019080519060200190611cea929190611fa7565b50610100820151816008019080519060200190611d08929190611fa7565b5050506001600480549050037fca0f0263e10a85892496523b99b9450d1d6e40cbce860b150a7bbf062fbd4e4060405160405180910390a25050505050505050565b828054600181600116156101000203166002900490600052602060002090601f016020900481019282601f10611d8b57805160ff1916838001178555611db9565b82800160010185558215611db9579182015b82811115611db8578251825591602001919060010190611d9d565b5b509050611dc69190612007565b5090565b6040518060a00160405280606081526020016000815260200160608152602001600073ffffffffffffffffffffffffffffffffffffffff168152602001606081525090565b828054600181600116156101000203166002900490600052602060002090601f016020900481019282601f10611e5057805160ff1916838001178555611e7e565b82800160010185558215611e7e579182015b82811115611e7d578251825591602001919060010190611e62565b5b509050611e8b9190612007565b5090565b6040518060a00160405280606081526020016000815260200160608152602001600073ffffffffffffffffffffffffffffffffffffffff168152602001606081525090565b6040518060a00160405280606081526020016000815260200160608152602001600073ffffffffffffffffffffffffffffffffffffffff168152602001606081525090565b604051806101200160405280600073ffffffffffffffffffffffffffffffffffffffff168152602001600073ffffffffffffffffffffffffffffffffffffffff168152602001600073ffffffffffffffffffffffffffffffffffffffff1681526020016060815260200160608152602001606081526020016060815260200160608152602001606081525090565b828054828255906000526020600020908101928215611ff6579160200282015b82811115611ff5578251829080519060200190611fe5929190611e0f565b5091602001919060010190611fc7565b5b509050612003919061202c565b5090565b61202991905b8082111561202557600081600090555060010161200d565b5090565b90565b61205591905b8082111561205157600081816120489190612058565b50600101612032565b5090565b90565b50805460018160011615610100020316600290046000825580601f1061207e575061209d565b601f01602090049060005260206000209081019061209c9190612007565b5b50565b6000813590506120af8161294d565b92915050565b6000813590506120c481612964565b92915050565b600082601f8301126120db57600080fd5b81356120ee6120e982612815565b6127e8565b9150808252602083016020830185838301111561210a57600080fd5b6121158382846128fa565b50505092915050565b60008135905061212d8161297b565b92915050565b6000806000806080858703121561214957600080fd5b6000612157878288016120b5565b9450506020612168878288016120b5565b93505060406121798782880161211e565b925050606061218a8782880161211e565b91505092959194509250565b600080600080600060a086880312156121ae57600080fd5b60006121bc888289016120b5565b95505060206121cd888289016120b5565b94505060406121de8882890161211e565b93505060606121ef8882890161211e565b925050608086013567ffffffffffffffff81111561220c57600080fd5b612218888289016120ca565b9150509295509295909350565b600080600080600060a0868803121561223d57600080fd5b600086013567ffffffffffffffff81111561225757600080fd5b612263888289016120ca565b95505060206122748882890161211e565b945050604086013567ffffffffffffffff81111561229157600080fd5b61229d888289016120ca565b93505060606122ae888289016120a0565b925050608086013567ffffffffffffffff8111156122cb57600080fd5b6122d7888289016120ca565b9150509295509295909350565b6000602082840312156122f657600080fd5b60006123048482850161211e565b91505092915050565b6000806040838503121561232057600080fd5b600061232e8582860161211e565b925050602083013567ffffffffffffffff81111561234b57600080fd5b612357858286016120ca565b9150509250929050565b60008060008060008060c0878903121561237a57600080fd5b600061238889828a0161211e565b965050602061239989828a0161211e565b95505060406123aa89828a0161211e565b945050606087013567ffffffffffffffff8111156123c757600080fd5b6123d389828a016120ca565b935050608087013567ffffffffffffffff8111156123f057600080fd5b6123fc89828a016120ca565b92505060a087013567ffffffffffffffff81111561241957600080fd5b61242589828a016120ca565b9150509295509295509295565b600061243e8383612503565b905092915050565b61244f816128b2565b82525050565b600061246082612851565b61246a818561287f565b93508360208202850161247c85612841565b8060005b858110156124b857848403895281516124998582612432565b94506124a483612872565b925060208a01995050600181019050612480565b50829750879550505050505092915050565b60006124d582612867565b6124df81856128a1565b93506124ef818560208601612909565b6124f88161293c565b840191505092915050565b600061250e8261285c565b6125188185612890565b9350612528818560208601612909565b6125318161293c565b840191505092915050565b60006125478261285c565b61255181856128a1565b9350612561818560208601612909565b61256a8161293c565b840191505092915050565b60006125826021836128a1565b91507f4f6e6c79206f776e65722063616e2063616c6c20746869732066756e6374696f60008301527f6e000000000000000000000000000000000000000000000000000000000000006020830152604082019050919050565b60006125e8602b836128a1565b91507f4f6e6c792070726f73656375746f72206f7220646566656e73652063616e207560008301527f706c6f61642066696c65730000000000000000000000000000000000000000006020830152604082019050919050565b61264a816128f0565b82525050565b60006020820190506126656000830184612446565b92915050565b600060c0820190506126806000830189612446565b61268d6020830188612446565b61269a6040830187612446565b81810360608301526126ac818661253c565b905081810360808301526126c0818561253c565b905081810360a08301526126d4818461253c565b9050979650505050505050565b600060208201905081810360008301526126fb8184612455565b905092915050565b6000602082019050818103600083015261271d81846124ca565b905092915050565b600060a082019050818103600083015261273f818861253c565b905061274e6020830187612641565b8181036040830152612760818661253c565b905061276f6060830185612446565b8181036080830152612781818461253c565b90509695505050505050565b600060208201905081810360008301526127a681612575565b9050919050565b600060208201905081810360008301526127c6816125db565b9050919050565b60006020820190506127e26000830184612641565b92915050565b6000604051905081810181811067ffffffffffffffff8211171561280b57600080fd5b8060405250919050565b600067ffffffffffffffff82111561282c57600080fd5b601f19601f8301169050602081019050919050565b6000819050602082019050919050565b600081519050919050565b600081519050919050565b600081519050919050565b6000602082019050919050565b600082825260208201905092915050565b600082825260208201905092915050565b600082825260208201905092915050565b60006128bd826128d0565b9050919050565b60008115159050919050565b600073ffffffffffffffffffffffffffffffffffffffff82169050919050565b6000819050919050565b82818337600083830152505050565b60005b8381101561292757808201518184015260208101905061290c565b83811115612936576000848401525b50505050565b6000601f19601f8301169050919050565b612956816128b2565b811461296157600080fd5b50565b61296d816128c4565b811461297857600080fd5b50565b612984816128f0565b811461298f57600080fd5b5056fea26469706673582212201d78b82d260f2ad3e2be3215a93b4af549fa520a067a5faab870088fe0b836ce64736f6c63430006000033",
  "linkReferences": {},
  "deployedLinkReferences": {}
}